:020000040800F2
:1000000020090020110200084D1200084F120008BC
:1000100053120008571200085B120008000000008D
:100020000000000000000000000000006112000855
:100030005F1200080000000063120008651200084B
:100040002B0200082B0200082B0200082B020008DC
:100050002B0200082B0200082B0200082B020008CC
:100060002B0200082B0200082B0200082B020008BC
:100070002B0200082B0200082B0200082B020008AC
:100080002B0200082B0200082B0200082B0200089C
:100090002B0200082B0200082B0200082B0200088C
:1000A0002B0200082B0200082B0200082B0200087C
:1000B0002B0200082B0200082B0200082B0200086C
:1000C0002B0200082B0200082B0200082B0200085C
:1000D0002B0200080D1400082B0200082B02000858
:1000E0002B0200082B0200082B0200082B0200083C
:1000F0002B0200082B0200082B0200082B0200082C
:100100002B0200082B0200082B0200082B0200081B
:100110002B0200082B0200082B0200082B0200080B
:100120002B0200082B0200082B0200082B020008FB
:1001300000F002F800F05CF80AA090E8000C82449D
:100140008344AAF10107DA4501D100F051F8AFF27A
:10015000090EBAE80F0013F0010F18BFFB1A43F0A5
:10016000010318479C200000BC2000000A444FF007
:10017000000C10F8013B13F0070408BF10F8014B06
:100180001D1108BF10F8015B641E05D010F8016B4B
:10019000641E01F8016BF9D113F0080F1EBF10F8AF
:1001A000014BAD1C0C1B09D16D1E58BF01F801CBD2
:1001B000FAD505E014F8016B01F8016B6D1EF9D555
:1001C0009142D6D37047000000230024002500266A
:1001D000103A28BF78C1FBD8520728BF30C148BFAA
:1001E0000B6070471FB501F0F7FB1FBD10B510BDC8
:1001F00001F0BFFB1146FFF7F5FF00F0CDFF01F066
:10020000DDFB03B4FFF7F2FF03BC01F09DF8000033
:100210000948804709480047FEE7FEE7FEE7FEE79A
:10022000FEE7FEE7FEE7FEE7FEE7FEE704480549D6
:10023000054A064B70470000210300083101000801
:100240002003002020090020200500202005002098
:100250004FF0000108466D4A126842F480326B4B41
:100260001A6000BF694A126802F4003001F101010E
:1002700010B9B1F5A06FF5D1644A126812F4003FCD
:1002800002D04FF0010001E04FF00000012842D100
:100290005F4A126842F010025D4B1A601A461268FB
:1002A00022F003021A601A46126842F002021A6033
:1002B000564A5268554B5A601A4652685A601A4656
:1002C000526842F480625A601A46526822F47C12E4
:1002D0005A601A46526842F4E8125A601A46126886
:1002E00042F080721A6000BF484A126812F0007F24
:1002F000FAD0464A526822F00302444B5A601A462A
:10030000526842F002025A6000BF404A526802F04E
:100310000C02082AF9D1704710B5FFF799FF10BDFC
:1003200010B53A48006840F00100384908600846B6
:100330004068384900EA01003449486008460068CE
:10034000354900EA0100314908600846006820F498
:10035000802008600846406820F4FE0048604FF4A2
:100360001F008860FFF7D8FF4FF000602B4908603E
:1003700010BD10B54FF0000108460246234B5B68E4
:1003800003F00C0121B1042906D008292CD107E083
:10039000234B244C23602BE0214B224C236027E08D
:1003A0001A4B5B6803F47010184B5B6803F48032DF
:1003B0004FF0020303EB90402AB91B4B00FB03F301
:1003C000184C23600FE0114B5B6813F4003F05D01D
:1003D000154B00FB03F3134C236004E0104B00FBB0
:1003E00003F3104C236003E00D4B0E4C236000BF61
:1003F00000BF064B5B68C3F303130C4CE15C094B75
:100400001B6823FA01F3074C236010BD0010024063
:10041000002002400000FFF8FFFFF6FE08ED00E0BC
:1004200000127A000000002000093D0004000020B6
:10043000384940EA0101384A1160704770B54FF001
:1004400000010B464FF00F02C4784CB3324C2468C5
:1004500004F4E064C4F5E0644FEA1421C1F104033C
:1004600022FA01F2447804FA03F1847804EA0204DF
:1004700044EA01014FEA0111284C0678A15504789D
:1004800004F01F054FF0010404FA05F405784FEA63
:1004900065154FF0E02606EB8505C5F800410CE038
:1004A000047804F01F054FF0010404FA05F41C4D14
:1004B00006784FEA661645F8264070BD194A01EAEB
:1004C000020242EA0002184B1A60704731B1174A23
:1004D000126842EA0002154B1A6005E0134A1268DE
:1004E00022EA0002114B1A607047042808D14FF02D
:1004F000E021096941F004014FF0E022116107E0B9
:100500004FF0E021096921F004014FF0E022116170
:10051000704700000000FA050CED00E000E400E088
:1005200080E100E080FFFF1F08ED00E010ED00E03B
:1005300010B50446DE48844208D10121042000F0B1
:100540007FFB0021042000F07BFB46E0D948844279
:1005500008D10121082000F073FB0021082000F0E1
:100560006FFB3AE0D448844208D10121102000F00A
:1005700067FB0021102000F063FB2EE0CF4884428F
:1005800008D10121202000F05BFB0021202000F099
:1005900057FB22E0CA48844208D10121402000F0E4
:1005A0004FFB0021402000F04BFB16E0C548844281
:1005B00008D10121802000F043FB0021802000F0C1
:1005C0003FFB0AE0C048844207D10121801500F0BA
:1005D00037FB0021A01500F033FB10BD10B5012141
:1005E000084600F02DFB0021012000F029FB10BD82
:1005F0002DE9F04102464FF000052E4628460346FD
:100600000446074691F803C00CF00F0591F803C0AB
:100610001CF0100F03D091F802C04CEA0505B1F8A8
:1006200000C01CF0FF0F35D014684FF000002EE022
:100630004FF0010C0CFA00F3B1F800C00CEA03060D
:100640009E4222D14FEA80034FF00F0C0CFA03F7C1
:1006500024EA070405FA03FC4CEA040491F803C0F9
:10066000BCF1280F06D14FF0010C0CFA00FCC2F8C7
:1006700014C00AE091F803C0BCF1480F05D14FF057
:10068000010C0CFA00FCC2F810C000F101000828AF
:10069000CED31460B1F800C0BCF1FF0F38DD546850
:1006A0004FF0000031E000F1080C4FF0010808FAAB
:1006B0000CF3B1F800C00CEA03069E4223D14FEAC6
:1006C00080034FF00F0C0CFA03F724EA070405FA35
:1006D00003FC4CEA040491F803C0BCF1280F05D1D7
:1006E00000F1080C08FA0CF8C2F8148091F803C065
:1006F000BCF1480F07D100F1080C4FF0010808FACF
:100700000CF8C2F8108000F101000828CBD3546027
:10071000BDE8F0814FF6FF7101804FF0020181705A
:100720004FF00401C170704702464FF0000093681B
:100730000B4202D04FF0010001E04FF00000704783
:100740000146886880B2704702464FF00000D368C7
:100750000B4202D04FF0010001E04FF00000704763
:100760000146C86880B270470161704741617047B7
:100770000AB1016100E041617047C16070474FF408
:10078000803242EA0102826181618261826982690A
:10079000704702464FF000004C4B18684FF68073CC
:1007A00000EA030040EA021040EA0100474B1860EB
:1007B00070474749C8617047F0B50A464FF00003DB
:1007C0001C4619460D4600F00046B6F1004F02D116
:1007D0003E4EF16901E03D4E7168C0F3034583B2BE
:1007E00000F44016B6F5401F08D121F07061374E75
:1007F000766826F07066354F7E6017E000F480164C
:10080000B6F5801F08D14FF0030606FA05F421EA79
:10081000040141F0706109E04FEA50564FEA0616B4
:1008200003FA06F621EA060141F070613AB14FEA97
:1008300050564FEA061603FA06F646EA010100F0A2
:100840000046B6F1004F02D1204EF16101E01F4E8B
:100850007160F0BD30B54FF000024FEA81734FEA8E
:1008600013744FF00F0303FA04F21A4B4FEAA1047A
:1008700053F8243023EA0203164C4FEAA10544F84A
:10088000253023464FEAA10453F824304FEA8174FF
:100890004FEA147400FA04F443EA04030D4C4FEADF
:1008A000A10544F8253030BD0B49086070470000B1
:1008B00000080140000C01400010014000140140FC
:1008C00000180140001C01400020014000000140D0
:1008D0000000204208000140DC002042F748006888
:1008E00040F00100F549086008464068F44900EA14
:1008F0000100F249486008460068F24900EA010038
:10090000EE4908600846006820F480200860084628
:10091000406820F4FE0048604FF41F008860704774
:10092000E649096821F48031E44A116011460968FA
:1009300021F480211160B0F5803F03D0B0F5802F05
:100940000ED106E0DD49096841F48031DB4A1160CF
:1009500007E0DA49096841F4A021D84A116000E0B3
:1009600000BF00BF704710B501464FF000021346AC
:1009700010464FEA6112012A02D1D04C236806E0EA
:10098000022A02D1CD4C236A01E0CC4C636A01F00B
:100990001F024FF0010404FA02F41C4202D04FF08F
:1009A000010001E04FF0000010BD70B54FF00004F1
:1009B0002546264600BF3120FFF7D5FF064604F145
:1009C0000104B4F5A06F01D0002EF4D03120FFF760
:1009D000CAFF10B14FF0010501E04FF000052846B5
:1009E00070BD01464FF00000B44A106820F0F800D6
:1009F00040EAC10010607047B34908607047024682
:100A00004FF00000AD4B586820F47C1042EA01031F
:100A100043EA0000A94B58607047AB49086670472D
:100A200001464FF00000A54A506820F0030040EA5C
:100A3000010050607047A148406800F00C0070470A
:100A400001464FF000009D4A506820F0F00040EA57
:100A500001005060704701464FF00000974A50680F
:100A600020F4E06040EA01005060704701464FF01A
:100A70000000924A506820F4605040EAC100506083
:100A8000704731B18D4A527A42EA00028B4B5A725A
:100A900008E08A4A527A6FEA0003DBB202EA0302F4
:100AA000864B5A72704789490860704701464FF07B
:100AB0000000824A506820F4404040EA0100506043
:100AC00070474FF00001824A11707C4A82F8201072
:100AD000012802D004280AD104E04FF001017C4A29
:100AE000117005E04FF00501794A117000E000BF78
:100AF00000BF70477749086070477049096A41EA4A
:100B000000016E4A1162704773490860704730B542
:100B10004FF000010A460C460B46684D6D6805F023
:100B20000C0121B1042905D0082927D105E06B4D1E
:100B3000056026E0694D056023E0604D6D6805F4B1
:100B400070125E4D6D6805F480344FF0020505EBC0
:100B5000924224B9624D02FB05F505600DE0574D48
:100B60006D6815F4003F04D05D4D02FB05F505608E
:100B700003E05A4D02FB05F5056002E0574D0560A4
:100B800000BF00BF4D4D6D6805F0F0014FEA111137
:100B9000544D6B5C056825FA03F54560474D6D685B
:100BA00005F4E0614FEA11214E4D6B5C456825FA72
:100BB00003F58560414D6D6805F460514FEAD12120
:100BC000484D6B5C456825FA03F5C5603B4D6D6883
:100BD00005F440414FEA9131434D6B5CC568B5FB6C
:100BE000F3F5056130BD31B1344A526942EA000281
:100BF000324B5A6105E0314A526922EA00022F4B1A
:100C00005A61704731B12D4A926942EA00022B4B7A
:100C10009A6105E0294A926922EA0002274B9A610B
:100C2000704731B1254AD26942EA0002234BDA61AA
:100C300005E0224AD26922EA0002204BDA617047BD
:100C400031B11E4AD26842EA00021C4BDA6005E06C
:100C50001A4AD26822EA0002184BDA60704731B1B2
:100C6000164A126942EA0002144B1A6105E0134A5F
:100C7000126922EA0002114B1A6170471B49086091
:100C800070471149C86470470C49C87170470B48D8
:100C9000406A40F0807009494862704701464FF051
:100CA0000000064A92680A4202D04FF0010001E0BB
:100CB0004FF00000704701498872704700100240F1
:100CC0000000FFF8FFFFF6FE00004242D80042425B
:100CD00020100240800442423C04424200127A004A
:100CE00000093D001400002024000020400442427E
:100CF00010B50446F848844209D101218803FFF762
:100D00009FFF00214FF48040FFF79AFF32E0F34845
:100D1000844209D101214804FFF7A1FF00214FF4CB
:100D20000030FFF79CFF25E0ED48844209D1012106
:100D30008804FFF794FF00214FF48020FFF78FFF16
:100D400018E0E848844209D10121C804FFF787FF71
:100D500000214FF40020FFF782FF0BE0E2488442BD
:100D600008D101210805FFF77AFF00214FF4801018
:100D7000FFF775FF10BD2DE9F04786B005460E461A
:100D80004FF00004A24600BFA1462746B08900B13B
:100D900000BF2F462C8A4CF6FF7004EA0004F0884E
:100DA00040EA04042C82AC894EF6F31004EA0004F5
:100DB000B088318940EA0100718940EA010040EAC7
:100DC0000404AC81AC8A4FF6FF4004EA0004B08909
:100DD00040EA0404AC8201A8FFF799FEBE488742AE
:100DE00002D1DDF810A001E0DDF80CA0A88910F414
:100DF000004F09D00AEBCA0000EB0A1031684FEA35
:100E00004101B0FBF1F808E00AEBCA0000EB0A1060
:100E100031684FEA8101B0FBF1F84FF06400B8FB94
:100E2000F0F04FEA00144FEA14104FF0640101FB98
:100E30001089A88910F4004F0AD04FF0320000EB5F
:100E4000C900B0FBF1F000F0070040EA04040BE039
:100E50004FF0320000EB09104FF06401B0FBF1F0ED
:100E600000F00F0040EA04042C8106B0BDE8F087D2
:100E70004FF4165101604FF000018180C180018163
:100E80004FF00C0141814FF000018181704710B596
:100E900002464FF00000108A4FF2FF0300EA030001
:100EA0000B884C8843EA04038C8843EA0403CC880B
:100EB00043EA040343EA0000108210BD4FF0000132
:100EC000018041808180C180704721B1828942F4D4
:100ED0000052828105E082894DF6FF7302EA030227
:100EE00082817047F0B503464FF000042646254640
:100EF0002046A1F510676A3F00D100BF1846C1F334
:100F0000421401F01F064FF0010707FA06F5012C05
:100F100002D100F10C0006E0022C02D100F1100019
:100F200001E000F1140022B1076847EA05070760F5
:100F300003E0076827EA05070760F0BD10B522B196
:100F4000838A43EA0103838206E0838A6FEA01040D
:100F5000A4B203EA0403838210BD028A4FF6F07341
:100F600002EA03020282028A42EA01020282704716
:100F700082894FF2FF7302EA03028281828942EA88
:100F800001028281704721B1828942F0020282818E
:100F900005E082894FF6FD7302EA03028281704701
:100FA000028A4FF6DF7302EA03020282028A42EAF1
:100FB00001020282704721B1028A42F48042028219
:100FC00005E0028A4BF6FF7302EA030202827047D1
:100FD000C1F308028280704701468888C0F3080088
:100FE0007047818941F0010181817047028BD2B243
:100FF0000283028B42EA012202837047028B02F4D1
:101000007F420283028B42EA01020283704721B1D0
:10101000828A42F02002828205E0828A4FF6DF73E4
:1010200002EA03028282704721B1828A42F01002F2
:10103000828205E0828A4FF6EF7302EA030282821F
:10104000704721B1828A42F00802828205E0828ADA
:101050004FF6F77302EA03028282704721B1828958
:1010600042F40042828103E08289C2F30E0282814F
:10107000704721B1828A42F40062828205E0828A4E
:101080004FF2FF7302EA030282827047828A4FF6B0
:10109000FB7302EA03028282828A42EA01028282AE
:1010A000704721B1828A42F00202828205E0828A80
:1010B0004FF6FD7302EA03028282704702464FF048
:1010C0000000B1F5007F00D100BF13880B420DD0A6
:1010D0004FF001000CE000000038014000440040E7
:1010E00000480040004C0040005000404FF000001D
:1010F000704701F40072B2F5007F00D100BF6FEAC3
:1011000001020280704770B502464FF0000423468A
:101110001D461846A1F510666A3E00D100BFC1F316
:10112000421501F01F034FF0010606FA03F3012DEB
:1011300003D1968906EA030308E0022D03D1168A3B
:1011400006EA030302E0968A06EA03034FEA212433
:101150004FF0010606FA04F4168806EA04041BB1EF
:1011600014B14FF0010001E04FF0000070BD10B568
:101170004FF000021346A1F510646A3C00D100BF95
:101180004FEA21224FF0010404FA02F4A3B26FEAFD
:101190000304048010BD000000F066F800F0CEF8F3
:1011A00000F07EF900F026FB00F0F2F94FF0200489
:1011B0003AE000221146104600F026FA01220021F2
:1011C000122000F021FA02220021242000F01CFA53
:1011D00003220021362000F017FA042200214820C3
:1011E00000F012FA052200215A2000F00DFA062222
:1011F00000216C2000F008FA0CA20321002000F06E
:1012000075FA0EA20621002000F070FA0DA2062148
:101210003F2000F06BFA22460621302000F02BFA26
:101220004FF4487000F05BF8C3E70000312E33271D
:10123000204F4C45442054455354000041534349EA
:10124000493A0000434F44453A000000704700BF50
:10125000FEE700BFFEE700BFFEE700BFFEE7704706
:10126000704770477047000010B56FF00400FFF73B
:101270003CF92E4800682E49B0FBF1F02D4908706A
:10128000084600784FF47A7100FB01F02A49088083
:1012900010BD0146274A127801FB02F24FF0E0230D
:1012A0005A614FF000029A611A46126942F0010237
:1012B0001A6100BF4FF0E022106910F0010F02D058
:1012C00010F4803FF6D04FF0E022126922F00102C4
:1012D0004FF0E0231A614FF000029A617047014617
:1012E000154A128801FB02F24FF0E0235A614FF0D9
:1012F00000029A611A46126942F001021A6100BFA7
:101300004FF0E022106910F0010F02D010F4803F7E
:10131000F6D04FF0E022126922F001024FF0E023F4
:101320001A614FF000029A6170470000000000202F
:1013300000127A00280000202A00002010B54FF487
:10134000A060FFF775F810BD014600BF704700BFF1
:101350004E4A128812F0400FFAD0C2B24C4B1A809B
:10136000704710B586B004464FF0010144F2040006
:10137000FFF748FC4FF40070ADF814004FF0030085
:101380008DF816004FF018008DF8170005A9414898
:10139000FFF72EF94FF48060ADF814004FF0040011
:1013A0008DF8170005A93B48FFF722F94FF02500FB
:1013B0008DF800004FF003008DF801008DF8020059
:1013C0004FF001008DF803006846FFF737F80194ED
:1013D0004FF00000ADF80800ADF80A00ADF80C00C1
:1013E000ADF810004FF00C00ADF80E0001A9274831
:1013F000FFF7C1FC012240F225512448FFF772FD9E
:1014000001212248FFF761FD06B010BD10B540F282
:1014100025511E48FFF777FE18B31C48FFF7DCFD87
:10142000C4B21D48008810F4004F2ED11A4800881D
:1014300010F4804F0DD00A2C04D04FF00000164954
:10144000088022E01448008840F4004012490880D7
:101450001BE00D2C06D11048008840F480400E4956
:10146000088012E00C480088C0F30D000B490C54B2
:101470000948008800F101000749088008460088F3
:10148000C72802DD4FF00000088010BD0038014081
:1014900004380140000801402C000020F401002025
:1014A00008B501210C20FFF7ADFB4FF49F50ADF8BC
:1014B00000004FF010008DF803004FF003008DF88E
:1014C00002006946FE48FFF793F84FF49F51FC482D
:1014D000FFF74AF94FF0E000ADF800004FF01000C0
:1014E0008DF803004FF003008DF802006946F548BF
:1014F000FFF77EF8E021F348FFF736F94FF00400DC
:10150000ADF800008DF803004FF003008DF80200E5
:101510006946EC48FFF76CF80321EA48FFF724F925
:1015200008BD10B50A4622B14FF00103E64C236016
:1015300003E04FF00003E44C23604FF00003E34C62
:10154000236019461AE04FF00003E14C236010F0CD
:10155000800F04D04FF00103DE4C236003E04FF016
:101560000003DC4C23604FF00103D94C23604FEAA9
:1015700040634FEA136001F10103D9B20829E2DBAD
:101580004FF00103D14C2360D34CC4F8A03110BDFF
:1015900030B54FF000041CE004F1B001C8B20021E6
:1015A000FFF7BFFF00210220FFF7BBFF0021102043
:1015B000FFF7B7FF4FF0000506E001210020FFF71D
:1015C000B0FF05F10100C5B2802DF6DB04F101008A
:1015D000C4B2082CE0DB30BD30B504460D4605F141
:1015E000B001C8B24FF00001FFF79BFF102141EAA4
:1015F00014100021FFF795FF04F00F0141F00100E6
:101600000021FFF78EFF30BD2DE9F04180460E46E8
:1016100015464FF0000731464046FFF7DDFF3C46D8
:101620000CE0AE4A02EB8511085D0121FFF779FF5E
:1016300007F10100C7B204F10100C4B2102CF0DBC5
:10164000701CC1B24046FFF7C7FF4FF000040EE028
:101650006900491CA14A02EB4111085D0121FFF715
:1016600060FF07F10100C7B204F10100C4B2102C01
:10167000EEDBBDE8F0812DE9F04107460E469046CD
:101680004FF000052C46A8F12000C5B27F2F03DDE6
:10169000274606F10200C6B231463846FFF79CFFE6
:1016A0004FF0000409E004EB05118D4A505C012164
:1016B000FFF737FF04F10100C4B2082CF3DB701C04
:1016C000C1B23846FFF788FF4FF000040AE004EB90
:1016D00005110831824A505C0121FFF722FF04F115
:1016E0000100C4B2082CF2DBBDE8F081F0B504467D
:1016F0000F4615464FF0000611E0AA5D3946204618
:10170000FFF7B9FF04F10800C4B2782C04DD4FF0F4
:10171000000407F10200C7B206F10100C6B2A85DDD
:101720000028EAD1F0BD10B502464FF0010000E0FC
:1017300050430B00A1F10104E1B2F9D110BD2DE934
:10174000FF4F074691461D460D9E4FF0000A544636
:1017500035E0281B401EC1B20A20FFF7E4FFB9FBA9
:10176000F0F04FF00A01B0FBF1F201FB1208BAF100
:10177000000F13D1681EA04210DDB8F1000F0BD18D
:10178000B34606EBDB71491001FB0471C8B220229D
:101790000199FFF770FF0FE04FF0010AB34606EB27
:1017A000DB71491001FB0471C8B208F13001CAB203
:1017B0000199FFF760FF00BF04F10100C4B2AC4221
:1017C000C7DBBDE8FF8F10B54FF001004549086049
:1017D0004FF06400FFF783FD4FF000003E49C1F871
:1017E00098014FF06400FFF77AFD4FF001003D498A
:1017F000086010BD10B5FFF7E6FF0021AE20FFF72F
:1018000090FE00210220FFF78CFE00211020FFF740
:1018100088FE00214020FFF784FE00218120FFF791
:1018200080FE0021CF20FFF77CFE0021A120FFF7E2
:1018300078FE0021C820FFF774FE0021A620FFF7E4
:1018400070FE0021A820FFF76CFE00213F20FFF76B
:1018500068FE00218120FFF764FE0021FF20FFF7D2
:1018600060FE0021D320FFF75CFE00210846FFF751
:1018700058FE0021D520FFF754FE00218020FFF7FD
:1018800050FE0021D920FFF74CFE0021F120FFF788
:1018900048FE0021DA20FFF744FE00211220FFF766
:1018A00040FE0021DB20FFF73CFE00214020FFF737
:1018B00038FE00212020FFF734FE0021022013E033
:1018C000000C014000080140A08121429481214286
:1018D000940121429C0121420080214234000020D9
:1018E0000E1C000898812142FFF71BFE00218D206D
:1018F000FFF717FE00211420FFF713FE0021A4209C
:10190000FFF70FFE0021A620FFF70BFE0021AF20FE
:10191000FFF707FE0021AF20FFF703FEFFF738FEB9
:1019200000210846FFF758FE10BD10B54FF0000427
:1019300013E04FF000000A4908604FF06400FFF721
:10194000CEFC4FF001000749C1F89C014FF0640044
:10195000FFF7C5FC04F10100C4B2022CE9DB10BDA5
:101960009C81214200802142704770477047704738
:101970007047754600F028F8AE46050069465346A4
:1019800020F00700854618B020B5FEF74FFCBDE8F3
:1019900020404FF000064FF000074FF000084FF0D6
:1019A000000B21F00701AC46ACE8C009ACE8C00967
:1019B000ACE8C009ACE8C0098D4670470446AFF3F7
:1019C00000802046FEF71DFC00487047BC02002046
:1019D00000487047C002002010B5FFF7F9FF4FF034
:1019E0000001016010BD0000000000000000002F99
:1019F000000000000700070000147F147F1400247B
:101A00002A7F2A12006264081323003649552250A7
:101A100000000503000000001C22410000004122DC
:101A20001C000014083E08140008083E08080000C6
:101A300000A06000000808080808000060600000BE
:101A4000002010080402003E5149453E0000427F3C
:101A50004000004261514946002141454B31001888
:101A600014127F10002745454539003C4A4949304A
:101A70000001710905030036494949360006494904
:101A8000291E00003636000000005636000000080F
:101A900014224100001414141414000041221408EC
:101AA00000020151090600324959513E007C1211D1
:101AB000127C007F49494936003E41414122007F66
:101AC0004141221C007F49494941007F0909090120
:101AD000003E4149497A007F0808087F0000417FA5
:101AE0004100002040413F01007F08142241007F57
:101AF00040404040007F020C027F007F0408107FBE
:101B0000003E4141413E007F09090906003E415126
:101B1000215E007F091929460046494949310001E3
:101B2000017F0101003F4040403F001F2040201F37
:101B3000003F4038403F00631408146300070870FA
:101B4000080700615149454300007F4141000055AD
:101B50002A552A55000041417F0000040201020479
:101B60000040404040400000010204000020545466
:101B70005478007F484444380038444444200038B6
:101B80004444487F00385454541800087E09010228
:101B90000018A4A4A47C007F080404780000447DFD
:101BA0004000004080847D00007F10284400000039
:101BB000417F4000007C04180478007C080404780D
:101BC00000384444443800FC2424241800182424F9
:101BD00018FC007C080404080048545454200004F5
:101BE0003F444020003C4040207C001C2040201C02
:101BF000003C4030403C004428102844001CA0A079
:101C0000A07C004464544C441414141414140000B4
:101C100000000000000000000000000000000000C4
:101C200000F8000000000000003330000000001049
:101C30000C06100C0600000000000000000040C070
:101C40007840C0784000043F04043F040400007062
:101C500088FC08300000001820FF211E0000F0085A
:101C6000F000E018000000211C031E211E0000F0FF
:101C70000888700000001E21232419272110101647
:101C80000E00000000000000000000000000000046
:101C900000E01804020000000007182040000002C5
:101CA0000418E00000000040201807000000404039
:101CB00080F0804040000202010F0102020000009B
:101CC00000F0000000000101011F010101000000FF
:101CD00000000000000080B0700000000000000064
:101CE00000000000000000010101010101010000ED
:101CF0000000000000000030300000000000000084
:101D0000000080601804006018060100000000E078
:101D100010080810E000000F102020100F00001025
:101D200010F8000000000020203F2020000000707C
:101D30000808088870000030282422213000003074
:101D40000888884830000018202020110E0000006C
:101D5000C02010F8000000070424243F240000F8ED
:101D60000888880808000019212020110E0000E0D2
:101D7000108888180000000F112020110E00003874
:101D80000808C83808000000003F0000000000708C
:101D9000880808887000001C222121221C0000E015
:101DA00010080810E0000000312222110F0000008E
:101DB00000C0C00000000000003030000000000043
:101DC00000800000000000008060000000000000B3
:101DD000804020100800000102040810200040404C
:101DE000404040404000040404040404040000088F
:101DF0001020408000000020100804020100007044
:101E000048080808F0000000003036010000C0302B
:101E1000C828E810E0000718272423140B0000004E
:101E2000C038E0000000203C23020227382008F8D8
:101E3000888888700000203F202020110E00C030CC
:101E4000080808083800071820202010080008F8A3
:101E500008080810E000203F202020100F0008F89C
:101E60008888E8081000203F20202320180008F868
:101E70008888E8081000203F200003000000C030E0
:101E800008080838000007182020221E020008F861
:101E900008000008F808203F210101213F20000828
:101EA00008F8080800000020203F20200000000063
:101EB0000808F8080800C08080807F00000008F84B
:101EC00088C028180800203F20012638200008F884
:101ED000080000000000203F20202020300008F8EB
:101EE000F800F8F80800203F003F003F200008F805
:101EF00030C00008F808203F200007183F00E0101D
:101F000008080810E0000F10202020100F0008F82B
:101F100008080808F000203F210101010000E0103E
:101F200008080810E0000F18242438504F0008F863
:101F3000888888887000203F2000030C30200070C3
:101F40008808080838000038202121221C001808C1
:101F500008F8080818000000203F2000000008F8DA
:101F600008000008F808001F202020201F00087823
:101F7000880000C83808000007380E010000F80883
:101F800000F80008F800033C0700073C03000818AD
:101F900068808068180820302C03032C3020083813
:101FA000C800C83808000000203F200000001008CA
:101FB0000808C83808002038262120201800000012
:101FC00000FE020202000000007F40404000000CC2
:101FD00030C000000000000000010638C000000210
:101FE0000202FE000000004040407F0000000000B0
:101FF00004020202040000000000000000000000D3
:1020000000000000000080808080808080800002CE
:1020100002040000000000000000000000000000BA
:102020008080808000000019242222223F2008F8AE
:10203000008080000000003F112020110E000000F1
:10204000008080800000000E112020201100000080
:1020500000808088F800000E112020103F20000032
:10206000808080800000001F222222221300008036
:1020700080F0888888180020203F20200000000081
:10208000808080808000006B94949493600008F8B6
:10209000008080800000203F210000203F20008041
:1020A0009898000000000020203F20200000000041
:1020B00000809898000000C08080807F000008F8B1
:1020C000000080808000203F24022D302000000886
:1020D00008F8000000000020203F20200000808041
:1020E000808080808000203F20003F20003F808053
:1020F000008080800000203F210000203F20000061
:10210000808080800000001F202020201F00808011
:1021100000808000000080FFA12020110E00000040
:10212000008080808000000E112020A0FF80808031
:1021300080008080800020203F21200001000000DE
:1021400080808080800000332424242419000080B3
:1021500080E0808000000000001F202000008080C0
:10216000000000808000001F202020103F20808081
:1021700080000080808000010E3008060100808011
:102180000080008080800F300C030C300F00008036
:102190008000808080000020312E0E312000808061
:1021A00080000080808080818E7018060100008091
:1021B0008080808080000021302C222130000000AF
:1021C0000000807C020200000000003F4040000050
:1021D0000000FF00000000000000FF0000000002FF
:1021E000027C800000000040403F0000000000062C
:1021F00001010202040400000000000000000000D1
:102200002022000800000020F40100006C010008FA
:10221000F0220008F40100202C070000C80100088B
:102220001184A24A04680901020304060708090C84
:102230006910E5020406081BF010012AFF050215CB
:10224000F01B0F04012AFF0502130F18094040403C
:102250005F55555575041A5F0C091121080C1120A2
:102260000F094989790909090F201F112FFE024220
:102270004ACA4A0304134202FE000E14FF40504CA7
:102280004340404F50505C40FF1BF888012AFF0537
:102290000215F81B1F08012A7F200B109F80E23BCC
:1022A000808201000916E2A2928A86828080041848
:1022B00040807F172424A4FEA3221B22CCAA011451
:1022C00015080601FF2B0104010511FF0202025847
:1022D00008101010FF109008C3021108080F100416
:1022E00044827F01808040432C10284681A000005A
:0400000508000211DC
:00000001FF
